S012000073657269616C5F6C69622E73726563FC
S11300001DC02FC02EC02DC02CC02BC02AC029C09B
S113001028C027C026C025C024C023C022C021C0B8
S113002020C01FC01EC01DC01CC01BC01AC019C0E8
S113003018C017C016C015C014C013C011241FBEA9
S1130040CFEFD2E0DEBFCDBF11E0A0E0B1E0E8E346
S1130050F3E002C005900D92A830B107D9F7F5D0AE
S113006069C1CECF90E09817B1F0C29A2FEF3FE963
S113007045E0215030404040E1F700C00000C29804
S11300802FEF3FE945E0215030404040E1F700C008
S113009000009F5FE8CF0895109282002FE520931F
S11300A0810098E19093850086E08093840010920B
S11300B09200209391009093950080939400BA9AB3
S11300C085E0D0CF811109C08091860087FD02C0F0
S11300D00000FACF809180000895813011F080E013
S11300E008958091960087FD02C00000FACF8091A8
S11300F090000895811109C08091860085FD02C099
S11301000000FACF609380000895813041F480911B
S1130110960085FD02C00000FACF60939000089518
S11301200F931F93CF93DF93D82F8B01C0E0F80177
S1130130EC0FF11D6081662321F0CF5F8D2FDADF94
S1130140F6CFDF91CF911F910F91089565E071E093
S1130150E7CF8F929F92AF92BF92CF92DF92FF929E
S11301600F931F93CF93DF93CDB7DEB727970FB6C7
S1130170F894DEBF0FBECDBFF82ECE0101966C0100
S113018000E010E05C018F2D9DDF4601F6018193B4
S11301906F01682F8F2DAEDFF40180818D3051F413
S11301A0F501E00FF11F10826AE08F2DA3DFC50176
S11301B05BD017C00530110579F489818B3271F059
S11301C08D3261F08F2DC2DF6FE38F2D93DF8F2D82
S11301D0BDDF80E090E005C00630A1F30F5F1F4F44
S11301E0D2CF27960FB6F894DEBF0FBECDBFDF91F6
S11301F0CF911F910F91FF90DF90CF90BF90AF9060
S11302009F908F9008951F93CF93DF93CDB7DEB760
S113021027970FB6F894DEBF0FBECDBF182F072E59
S1130220000C880B990B2AE0AE014F5F5F4F39D069
S1130230BC01812F75DF27960FB6F894DEBF0FBE81
S1130240CDBFDF91CF911F91089526DF60E071E06B
S113025080E066DF80E07DDFBC0180E0D4DF80E009
S113026075DF80E090E00895FC0188279927E894E1
S113027021912032E9F3293010F02E30C8F32B32CB
S113028039F02D3231F4689403C019D0820F911DD6
S1130290219120532A30C8F31EF4909581959F4FE5
S11302A00895BB272A3051F4992342F4BDE2909576
S11302B08095709561957F4F8F4F9F4F0BC0BC0108
S11302C0880F991F880F991F860F971F880F991FF2
S11302D00895BB27FA01A62F6217710581059105C0
S11302E0330B30FB66F0AA27660F771F881F991F10
S11302F0AA1FA21710F0A21B63953850A9F7A05D9E
S1130300AA3308F0A95DA19336F7B111B193108215
S1130310CA0100C0DC01FC01672F71917723E1F76A
S1130320329704C07C916D9370836291AE17BF07BE
S10B0330C8F30895F894FFCF0F
S10B033841424344450A0D0053
S9030000FC
